:1000000000308A0018280000233084008313000881
:10001000031917280630F800F701F70B0D28F80B25
:100020000C287B30F700F70B1328800B0A280800F8
:1000300003081F39830083161F149F141F159F1177
:1000400007309C0083138C308800831208128316BB
:10005000880083128812831688008312081783167B
:100060008800831208148316880083128810831670
:1000700006148312061CB0280830A200FA30A30030
:100080000420A20B3E288C308316880083120813AC
:1000900083168800831288160430A200FA30A30069
:1000A0000420A20B4E288C308316880083128812FD
:1000B00083168800831208160430A200FA30A300C9
:1000C0000420A20B5E288C3083168800831208104F
:1000D00083168800831288142830A200FA30A30007
:1000E0000420A20B6E288C3083168800831288109F
:1000F000A1012108043C031C97288C30831688003A
:10010000831208140230A200FA30A3000420A20BCC
:1001100084288C3083168800831208100230A200D5
:10012000FA30A3000420A20B9028A10A79288C3071
:1001300083168800831208140430A200FA30A3004A
:100140000420A20B9E288C3083168800831208128C
:100150008316880083120817831606108312061070
:0401600037286300D9
:02400E00323F3F
:00000001FF
;PIC16F877A
;CRC=4A75  CREATED="12-Mar-19 22:43"
