:1000000000308A005D280000AB010408AA002B1014
:10001000831B2B14240EF038A600A607E23EA7008F
:10002000323EA90024080F39A707A707A907E93E10
:10003000A800A807A807230E0F39A807A907A80D2D
:10004000A90DA909A90D23080F39A907A60D073085
:10005000A5000A30A907A803031C2A28A807A7039C
:10006000031C2E28A707A603031C3228A607A503F6
:10007000031C362825308400831307302A052A13F1
:1000800084072930040203192A170008F700031D0A
:1000900051282A1B51282A1A5928AA1951282030D8
:1000A0005428AA152A123030F70777080C1E562854
:1000B0009900840A2A1F4128080003081F39830079
:1000C000813083169900A2309800903083129800F6
:1000D00083161F149F141F159F1107309C00831354
:1000E0001F109F101F159F111F1783121F139F179B
:1000F00083169F1783121F140030F8001F08C7399A
:1001000078049F00A630F700F70B842800001F1525
:100110001F1988281E08FA0083161E088312A100E2
:100120001E08A200103084001E08A4002108A300AD
:10013000042020300C1E9A2899000830F8001F086F
:10014000C73978049F00A630F700F70BA5280000F8
:100150001F151F19A9281E08FA0083161E088312EE
:10016000A1001E08A200103084001E08A40021086F
:10017000A300042020300C1EBB2899000A300C1E5E
:10018000BF2899000D300C1EC3289900A630F70037
:0A019000F70BC82800007C2863006C
:02400E00323F3F
:00000001FF
;PIC16F877A
;CRC=B7E2  CREATED="16-May-19 16:40"
