:1000000001308A008E290000FF00030E8301A10049
:100010000A08A0008A010408A2007708A300780853
:10002000A4007908A5007A08A600831383128B1E0A
:100030001B280B192C28220884002308F700240809
:10004000F8002508F9002608FA0020088A00210E89
:100050008300FF0E7F0E09008A110A123F280A1042
:100060008A100A118207313432343334343435344F
:1000700036343734383439342A3430342334AB0806
:1000800003197228AC0AA81C5D28B11B4B28310843
:10009000033C031CB1012B082C02031C5C282D30EF
:1000A0003107840083130008BB0083168801831284
:1000B0003B088800B10AAC017228B11F61280330E7
:1000C000B1002B082C02031C72282D30310784004C
:1000D00083130008BB008316880183123B08880045
:1000E000B103AC01281D92289B011D08CF399D004A
:1000F0005230F700F70B7A287D2800003308F9000A
:100100003208F800F90CF80CF90CF80CF90C780826
:100110009500F90C790C3039F7001708CF397704BE
:100120009700AF2895011708CF3997005230F70094
:10013000F70B98289B2800003308F9003208F800D4
:10014000F90CF80CF90CF80CF90C78089B00F90C78
:10015000790C3039F7001D08CF3977049D000B1159
:100160008A110A121B288A110A12E529831686149D
:100170000030831286180130B9008316061500304E
:10018000831206190130B9058316861500308312D3
:1001900086190130B9058316061600308312061A37
:1001A000013039050319D8280030F800DA28DA2898
:1001B0000130F8000800B701A70A2708213C0318FE
:1001C00073292A080319EB28013A0319F828033A7E
:1001D00003190529112983168612831286128316A4
:1001E00006138312061783168613831286171129A6
:1001F000831686128312861683160613831206133D
:10020000831686138312861711298316861283128A
:100210008616831606138312061783168613831217
:100220008613281C1C29B620F808031D1B2928103A
:100230002908B700A9017229B620F80803196D2909
:1002400083168614831286182729B8013E2983163F
:100250000615831206192F290130B8003E2983168E
:1002600086158312861937290230B8003E29831675
:1002700006168312061A3E290330B8003808B90062
:100280000330BA00F701F801390803103A18F707EC
:10029000F70CF80CBA18F707F70CF80C3A19F7072F
:1002A000F70CF80CBA19F707F70CF80C3A1AF7071D
:1002B000F70CF80CBA1AF707F70CF80C3A1BF7070B
:1002C000F70CF80CBA1BF707F70CF80C2A0878079C
:1002D0002F20F800A90028147229AA0A2A08033C32
:1002E0000319AA01A7013708F8008A110A12F52993
:1002F000373084008313000803198B290630F80077
:10030000F701F70B8129F80B80297B30F700F70BF9
:100310008729800B7E298A110A12FA2903081F39BE
:100320008300A810AC01B101B301B2012811FF3064
:10033000B50083161F149F141F159F1107309C00D2
:1003400083138312A7012810A901AA010A30AD0066
:100350000930AE000530AF000630B00083161F1024
:100360009F141F159F151F1383121F179F178316A6
:100370009F1783121F1483160108C03904388100A7
:100380000030F800063883129200FF308316920086
:1003900083123511350883168700831207110C303C
:1003A0009700B510350883168700831287100C302C
:1003B0009D0095011708CF3997009B011D08CF3983
:1003C0009D008B16C0308B04B3281F151F19E6291A
:1003D00083161E088312B2001E08B3005230F700C5
:1003E000F70BF029F3290000DB287808B60001306C
:1003F000B7007829831685148312851C092A831671
:10040000851483128518FF29281D082A2811092A16
:100410002815B60803193B2A3608313A0319262A4B
:10042000033A0319292A013A03192C2A073A031916
:100430002F2A013A0319322A053A0319352A1A3AA2
:100440000319372A093A0319392A3B2A5530AB00D8
:100450003B2A4130AB003B2A2D30AB003B2A193000
:10046000AB003B2A0530AB003B2AAB013B2AA8106E
:0A0470003B2AA8143B2AE52963008B
:02400E00323F3F
:00000001FF
;PIC16F877A
;CRC=11CC  CREATED="13-May-19 11:05"
